:0400000002002132A7
:01000B0032C2
:0100130032BA
:03001B000200CB15
:0C007A00E4F509F50AF50BF50C02001E78
:03001E0002009449
:200086007E007F801EBEFF011FEE4F70F722758910D2ABD2AFD28E750800D2B420B4FD7468
:2000A600F7250840020508D2961200867F00C3EF950850E8D296C007120086C2961200860A
:2000C600D0070F80E9C0E0C0D0C3E50994D0E50A94B2E50B9400E50C94004011E4F509F520
:2000E6000AF50BF50CE5086016150880120509E4B5090C050AB50A07050BB50B02050CE584
:10010600086004C2958004D295D296D0D0D0E03251
:06005000E478FFF6D8FD84
:20002E007900E94400601B7A0090011A780075A000E493F2A308B8000205A0D9F4DAF2755E
:02004E00A0FF11
:200056007800E84400600A790075A000E4F309D8FC7800E84400600C7900900000E4F0A3AA
:04007600D8FCD9FADF
:0D00210075810C120116E582600302001EBD
:0401160075820022CC
:00000001FF
